:020000040800F2
:1000000000040020B9010008BB010008BB01000882
:10001000BB010008BB010008BB010008BB010008D0
:10002000BB010008BB010008BB01000885BC00083B
:10003000BB010008BB010008BB010008BDCE0008E1
:10004000BB010008BB010008BB010008BB010008A0
:10005000BB010008BB010008C9300008F5300008EA
:10006000213100084D31000879310008BB0100083A
:10007000BB010008BB010008F9D40008BB0100085F
:10008000A5310008BB010008BB010008BB01000846
:10009000BB010008BB010008BB010008BB01000850
:1000A000BB010008BB010008ADD00008BB0100087F
:1000B000BB010008BB010008DDCE0008BB01000841
:1000C000BB01000831320008BB010008BB01000879
:1000D000BB010008BB010008BB010008BB01000810
:1000E00072B6264880F30888254880F30988254899
:1000F00025490860022080F31488BFF36F8F0BF04E
:1001000039FB0BF013F94FF0553020491B4A91424F
:100110003CBF41F8040BFAE71D49194A91423CBF24
:1001200041F8040BFAE71B491B4A1C4B9A423EBF9D
:1001300051F8040B42F8040BF8E700201849194A5B
:1001400091423CBF41F8040BFAE70BF017FB0BF0B0
:1001500012FB154C154DAC4203DA54F8041B8847CA
:10016000F9E705F0EFFF124C124DAC4203DA54F8F8
:10017000041B8847F9E70BF0FFBA000000040020D9
:10018000000C00200000000808ED00E00000002046
:100190000004002070F20008000C00204011002034
:1001A000401100209C330020E0000008E00000081F
:1001B000E0000008E000000892E700F000F8FEE729
:1001C0002DE9F04FC1F80CD0C3689D46BDE8F08F13
:1001D000002383F311882846A04700200BF0D2FCAF
:1001E000FEE70BF005FC00DFFEE7000053B94AB95B
:1001F000002908BF00281CBF4FF0FF314FF0FF302F
:1002000000F074B9ADF1080C6DE904CE00F006F809
:10021000DDF804E0DDE9022304B070472DE9F04782
:100220008C460446089E002B40F086808A42154684
:1002300048D9B2FA82F24AB1C2F1200701FA02F3B8
:1002400020FA07F7954047EA030C94404FEA154E11
:10025000BCFBFEF71FFA85F80EFB17C307FB08F976
:10026000210C41EA0343994509D9EB1807F1FF3105
:1002700080F0E180994540F2DE80023F2B44A3EB01
:100280000903B3FBFEF00EFB103300FB08F1A4B230
:1002900044EA0344A14209D92C1900F1FF3380F04C
:1002A000C880A14240F2C58002382C4440EA074091
:1002B0000027641A1EB10023D440C6E90043394622
:1002C000BDE8F087002A54D0B2FA82F2002A40F04A
:1002D000B4800127491B4FEA15481FFA85F9B1FB85
:1002E000F8FE08FB1E1109FB0EF04FEA144C4CEA15
:1002F0000143984207D9EB180EF1FF3102D2984220
:1003000000F2EB808E461B1AB3FBF8F008FB1033AB
:1003100009FB00F9A4B244EA0344A14507D92C190A
:1003200000F1FF3302D2A14500F2DB801846A4EBB6
:10033000090440EA0E40BDE78B4208D9002E75D073
:100340000027C6E9000138463946BDE8F087B3FA10
:1003500083F77FB98B4202D3824200F2BC80841AB9
:1003600061EB030301209C46002EA8D0C6E9004C97
:10037000A5E7FFDEC7F12005BB4022FA05FC4CEAE9
:10038000030C21FA05F44FEA1C4EB4FBFEF91FFAE8
:100390008CF80EFB194420FA05F3B94009FB08FA62
:1003A00019430B0C43EA0444A24502FA07F200FA8F
:1003B00007F30BD91CEB040409F1FF3080F08980AE
:1003C000A24540F28680A9F102096444A4EB0A0424
:1003D000B4FBFEF00EFB104400FB08FA89B241EAC0
:1003E0000444A24508D91CEB040400F1FF316CD28F
:1003F000A2456AD90238644440EA0940A0FB028958
:10040000A4EB0A044C454146CE4655D352D0002EAB
:100410006AD05A1A64EB0E0404FA05F522FA07F3BF
:10042000FC401D43C6E90054002748E737463046E4
:1004300045E718463AE70F4621E79540C2F1200309
:1004400021FA03F04FEA1548B0FBF8F71FFA85F9D7
:1004500008FB170E24FA03FC914007FB09FA4CEA4B
:100460000101080C40EA0E40824504FA02F407D963
:10047000281807F1FF332AD2824528D9023F2844A1
:10048000A0EB0A00B0FBF8FC08FB1C000CFB09F316
:1004900089B241EA00418B4208D969180CF1FF305A
:1004A00011D28B420FD9ACF1020C2944C91A4CEA83
:1004B000074714E74345AAD2B8EB020169EB0C02E7
:1004C00001389646A3E78446F0E7084694E71F46BE
:1004D000D6E781467AE7384646E7AEF1020E2B446E
:1004E00011E702382C4422E73746E8E6704700BFA0
:1004F00008B5062000F0FAF901200CF007FB00BF58
:10050000032A70B412D940EA0105AD0704460B4630
:1005100020D11946204653F8045B54F8046BAE42D0
:1005200018D1043A032A20461946F2D8541E72B153
:1005300003780A789A4208BF241806D00CE010F815
:10054000013F11F8012F934206D1A042F7D10020BC
:1005500070BC7047541EEBE7981A70BC704700BF20
:10056000844641EA000313F0030349D1403A23D300
:100570000B6803604B6843608B688360CB68C36023
:100580000B6903614B6943618B698361CB69C3610B
:100590000B6A03624B6A43628B6A8362CB6AC362F3
:1005A0000B6B03634B6B43638B6B8363CB6BC363DB
:1005B00040304031403ADBD230320BD30B6803601D
:1005C0004B6843608B688360CB68C3601030103128
:1005D000103AF3D20C3205D351F8043B40F8043BF7
:1005E000043AF9D2043208D0D2071CBF11F8013BFB
:1005F00000F8013B01D30B8803806046704700BFC1
:10060000082A13D38B07B1D010F00303AED0C3F187
:100610000403D21ADB071CBF11F8013B00F8013BB1
:10062000A4D331F8023B20F8023B9FE7043AD9D328
:10063000013A11F8013B00F8013BF9D20B78037045
:100640004B7843708B78837060467047F0B48607B0
:1006500046D0541E002A3CD0CAB2034602E014F130
:10066000FF3436D303F8012B9D07F8D1032C29D989
:10067000CDB245EA05250F2C45EA054533D9A4F14D
:100680001006360903F1200707EB061703F11002E5
:1006900042E9045542E902551032BA42F8D1721CBF
:1006A00014F00C0F03EB021204F00F0613D0331FEB
:1006B00023F003030433134442F8045B9342FBD159
:1006C00006F003042CB1C9B21C4403F8011B9C4280
:1006D000FBD1F0BC704734461346002CF3D1F8E749
:1006E00014460346C2E71A462646E0E738B5124BE1
:1006F00005461C68A06B18B10023C0E9045338BD3F
:10070000182000F0A1F9A06378B101220023C0E90C
:1007100004230A4B0B24836000230949094A84817E
:10072000C0E90012C0E9045338BD0246064B42211D
:10073000064800F041F900BF000C0020ECDE050087
:100740000E33CDAB34126DE6A0F10008B8F100080D
:1007500038B51A4B1C68A26B92B1146918495369D9
:1007600001FB04F1174800FB0313A4FB0045611CC7
:100770001D4445F1000323F00040C2E9041338BDD5
:10078000182000F061F90246A06388B10124002519
:100790000B21C0E904450C4B0948136003460B4D7F
:1007A0000B4C91810B49C2E90154C2E9041338BDD5
:1007B000094B4E21094800F0FFF800BF000C002053
:1007C0002DF451582D7F954C0E33CDAB34126DE680
:1007D000ECDE05002E7F954CA0F10008B8F1000872
:1007E00010B58021044600F093F9606440B1002206
:1007F000031F7C3043F8042F8342FBD1002010BD3F
:100800004FF0FF3010BD00BF436C0BB100207047AC
:10081000E6E700BF1F2970B5054608D8436C1646A9
:100820000C464BB153F8240043F8246070BD1622E7
:100830004FF0FF302A6070BDFFF7D2FF08B96B6C34
:10084000F0E74FF0FF3070BD1F2938B5054620D8BE
:10085000426C0C466AB152F8213053B1012B16D0CC
:10086000591C10D00025204642F8245098472846AD
:1008700038BD284600F070F8224601462846BDE8FB
:10088000384000F055B8162301202B6038BD0020F9
:1008900038BD16234FF0FF302B6038BD1F2921D8FB
:1008A00038B5436C05460C4683B153F8242003EB5E
:1008B00084034AB1511C10D0012A0CD000252046D7
:1008C0001D609047284638BD012038BDFFF788FFDE
:1008D00028B96B6CE9E7032038BD022038BD4FF022
:1008E000FF3038BD4FF0FF30704700BF024B01466C
:1008F0001868FFF7A9BF00BF000C0020024B0A4692
:1009000001461868FFF786BF000C0020034B1868EB
:10091000436C0BB10020704762E700BF000C002061
:10092000024B01461868FFF7B9BF00BF000C00205A
:1009300070B50D460023074C064611462846236035
:100940000CF0ECF8431C00D070BD2368002BFBD0EA
:10095000336070BD743300200CF0E8B820F0030160
:1009600010F00300C0F1000051F8043B00F1040C4A
:100970004FEACC0C6FF000021CBF22FA0CF21343BA
:100980004FF0010C4CEA0C2C4CEA0C4CA3EB0C0283
:1009900022EA030212EACC1204BF51F8043B0430ED
:1009A000F4D0C2F1000102EA0102B2FA82F2C2F10D
:1009B0001F0200EBD200704700B50A4C05462068C4
:1009C00085B01C46C06852B1074BCDE90132009199
:1009D0002B462246054900F023F8FFF789FD044B1A
:1009E0001A46F2E7000C0020ECF10008FCF10008C8
:1009F000F8F1000808B513460022FFF7DDFF00BF3D
:100A00000CB410B582B004AC54F8042B2346019406
:100A100000F024F902B0BDE8104002B0704700BFFA
:100A20000EB430B582B005AC54F8042B054D014628
:100A300023462868019400F011F902B0BDE8304067
:100A400003B07047000C0020024B0146186800F00C
:100A50005FB800BF000C0020024B0146186800F090
:100A600003B800BF000C002000293AD038B551F877
:100A7000043C0C1F002BB8BFE418054601F088FAAF
:100A8000224B1A682AB1A2420DD92168601882420D
:100A900021D0626028461C60BDE8384001F07EBA73
:100AA000A34203D81A465368002BF9D11168501895
:100AB000A04217D022D821686018834203BFD3E92F
:100AC00000030918C4E90013636054602846BDE8B8
:100AD000384001F063BAD2E900020144C4E90012CF
:100AE000D8E7704720680144501883421160EDD167
:100AF000D3E900030144C2E90013E7E70C232846C9
:100B00002B60BDE8384001F049BA00BF4011002019
:100B1000F8B5CD1C25F0030508350C2D38BF0C2584
:100B2000002D064633DBA94231D82A4F01F030FAB6
:100B30003A6852B113685B1B04D43FE023685B1B27
:100B400029D522465468002CF8D1796800293BD079
:100B5000294630460BF0BEFF431C28D0C41C24F0AD
:100B60000304A04205D0211A30460BF0B3FF013038
:100B70001DD02560304601F011FA04F10B0020F081
:100B80000700231DC21A01D01B1AA350F8BD0C2266
:100B900000203260F8BD0B2B05D8A242636811D04B
:100BA0005360E7E7144623601C442560E2E70C230A
:100BB0003046336001F0F2F90020F8BD0B2BF1D87C
:100BC000144653683B60D5E730460BF083FF7860EE
:100BD000BEE700BF401100209368013B002B9360EB
:100BE0000FDA10B49469A34208DB0A2906D013680F
:100BF000581C10601970084610BC704710BC00F0FB
:100C00009FBB1368581C106019700846704700BFDE
:100C10009BB1F8B513440F4606465D1E541E01E015
:100C2000AC4208D03A4614F8011F3046FFF7D4FF13
:100C3000431CF5D1F8BD0020F8BD0020704700BF6F
:100C4000936810B5144613B95360184610BD00F0F0
:100C50009BFE0023C4E9013310BD00BF2DE9F04F16
:100C60009FB08B4690461C46039018B18369002BB9
:100C700000F0C880AE4B9B4500F0CA80AD4B9B4551
:100C800000F0CA80AC4B9B4504BF039BD3F80CB06B
:100C9000DBF86430BBF80C20DB0702D4970540F189
:100CA0005781160740F12B81DBF81030002B00F044
:100CB000268100202021302298F800300127059459
:100CC0000B908DF831109D4E8DF83220002B00F0E6
:100CD0008880252B00F01181454603E0252B00F08C
:100CE0009F8025466B786C1C002BF7D1B4EB080A6B
:100CF00077D04246534659460398FFF789FF0130A3
:100D00006FD00B9B6A7853440B93002A69D0002361
:100D10004FF0FF3201340693CDE908338DF85B3094
:100D20001C93079206E02C46069B801B07FA00F0F6
:100D3000184306902546052215F8011B304601F0A0
:100D40007BF8AA460028EED1069BD80644BF202295
:100D50008DF85B20190748BF2B22217848BF8DF8FA
:100D60005B202A2961D1059A116804320029059275
:100D7000C0F2988009916178A51C2E296ED0704C24
:100D80000322204601F058F8002800F0818040221C
:100D9000069B001B02FA00F00343069305F10108CD
:100DA0002B780622194667488DF8303001F044F858
:100DB00000287DD0644B002B6DD005AB00935A46C4
:100DC000624B06A90398AFF300808146B9F1FF3F5B
:100DD00007D00B9B4B440B9398F80030002B7FF40B
:100DE00078AFDBF8643013F0010FBBF80C3002D1A0
:100DF0009A0540F1B4805B0600F194800B981FB017
:100E0000BDE8F08F00F0A8FC494B9B457FF436AF5E
:100E1000039BD3F804B03BE7039BD3F808B037E754
:100E2000B4EB080A3FF473AF63E7A1F13002092A7B
:100E300088BFA246A1D8099B01E02C46013529783C
:100E400003EB830302EB4303A1F13002092AAA4614
:100E5000F3D92E2904F10205099390D19AF80110D3
:100E60002A292FD1059B0AF102001A680433002AAF
:100E7000079205939AF802100AF1030538DB304C0B
:100E800082460322204600F0D7FF00287FF47FAF80
:100E9000A846554684E7059B073323F0070308332C
:100EA000059396E7494243F002030991069362E7EE
:100EB00005AB00935A46254B06A9039800F0F6F8B7
:100EC000814683E70023A1F13002092A079301D963
:100ED0002BE05546697803EB830302EB4303A1F152
:100EE0003002092A05F1010AF3D90235079346E7D2
:100EF0004FF0FF338246079341E7444607E75946E0
:100F0000039800F07DFA00283FF4D3AEDBF864309C
:100F1000DD0707D4BBF80C309C0503D4DBF8580080
:100F200000F010FF4FF0FF3069E7AA46013526E7D1
:100F3000E8E50008C8E50008A8E500082CF200086C
:100F400034F2000838F2000800000000110C00081C
:100F5000DBF8580000F0EEFEBBF80C20A1E6DBF851
:100F6000580000F0EFFEBBF80C3044E710B4044C1E
:100F700013460A460146206810BCFFF76FBE00BF4B
:100F8000000C00202DE9F0470C460969A568914640
:100F90008D42B8BF0D46156094F8431006461F46B3
:100FA000DDF8208011B16A1CC9F800202368990679
:100FB0005CD5D9F800200232C9F80020236813F06C
:100FC000060F19461DD1E1688A1A002AD8BF1946B2
:100FD00017DD002504F1190A05E0E368D9F80020BF
:100FE0009B1AAB420CDD0123524639463046C047BE
:100FF000013005F10105F0D14FF0FF30BDE8F08779
:10100000216894F84330003318BF01238A060AD5BB
:101010003021E21882F8431094F845105A1C2244FB
:1010200082F84310023304F1430239463046C04788
:101030000130E1D02368A26803F00603042B216984
:101040001DD08A4226DD4FF00009521A9144002536
:101050001A3401E04D451DDA012322463946304657
:10106000C047013005F10105F4D1C5E713F0060FC3
:1010700013D094F84330003318BF0123D3E7D9F8D5
:101080000000E3688A42A3EB000323EAE379DCDC97
:10109000002BDCDC0020BDE8F087E168D9F80020F7
:1010A0008A1A002AD8BF194693DCAAE72DE9F04333
:1010B0000C46097E85B06E2906461746984604F10F
:1010C000430C0C986DD039D9732900F0F48044D9C1
:1010D000752900F00281782940F00F817823226879
:1010E000DFF854E284F845300168150651F8043BF6
:1010F000016040F1A180D10744BF42F0200222608C
:10110000002B00F093801022002184F843106068C7
:101110000028A060C0F2C680216821F0040121608F
:10112000002B40F0A280002840F0BE806546082ACF
:1011300000F0AB80ACEB0503236141E0632900F0D4
:10114000E3801AD8002938D0582940F0D68084F896
:1011500045102268DFF8E4E1C6E76F2900F0BD80A2
:10116000702940F0CA8078232268DFF8CCE142F091
:101170002002226084F84530B6E7642902D069294C
:1011800040F0BB8022680368110603F1040557D5BF
:10119000196805600B46002959DB0A22DFF89CE13B
:1011A000B5E7036822681D1D6169056015061B68A7
:1011B00002D4500600F1BB8019600023654623610C
:1011C000CDF800803B4603AA21463046FFF7DAFE01
:1011D000013020D02A46236939463046C0470130C5
:1011E00019D0226803989207E36819D51A1A002AC1
:1011F00016DD002504F1190904E0E36803981A1AC2
:10120000AA420DDD01234A4639463046C047013027
:1012100005F10105F1D14FF0FF3005B0BDE8F083D5
:101220009842B8BF184605B0BDE8F0832168102287
:1012300021F02001216067E7500648BF9BB25AE7C2
:101240005106A5D5B3F9003005601946A3E72D2056
:1012500061685B42002984F84300A16002DB22F050
:10126000040222600A22DFF8D4E0654600E00B4663
:10127000B3FBF2F102FB11301EF80000934205F8B7
:10128000010DF4D2082A7FF455AF2368DB077FF500
:1012900051AF626823699A423FF74CAF3023013D5A
:1012A0002B7047E7002BE0D19EF8003004F1420597
:1012B00084F842303BE703686268191D01601D68CD
:1012C0000021284600F0B8FD002832D0401B6060A5
:1012D0002061002384F8433072E72268036812F02B
:1012E000800F03F104051AD01B6805606F290CBF3D
:1012F00008220A22DFF844E006E7012384F84210BE
:10130000236104F14205E4E70122036804F1420588
:10131000191D1B68016084F842302261D9E712F080
:10132000400F0DBF1B6805601B880560DEE7198054
:1013300043E76068CCE700BF54F2000840F20008C1
:10134000F8B50D461446064608B1836943B3254BEC
:101350009C422AD0244B9C4229D0244B9C4208BF5B
:10136000F468A269A389A2601A0722D5236903B38E
:1013700022686169D31AEDB299422F4629DD013303
:10138000A168501C0139A1602060157062699A4201
:1013900016D0A389DB0701D50A2D11D03846F8BD38
:1013A00000F0DAF90F4B9C42D4D17468D9E7B468E5
:1013B000D7E72146304600F023F838B92369D7E74C
:1013C0002146304600F032F90028E7D04FF0FF37D1
:1013D000E4E72146304600F029F90028F6D1012340
:1013E0002268CDE7E8E50008C8E50008A8E50008A0
:1013F000024B0A4601461868FFF7A2BF000C002006
:101400003B4B70B51D6806460C460DB1AB69DBB1B0
:10141000384B9C421ED0384B9C424AD0374B9C42A2
:1014200008BFEC68B4F90C2093B2190718D52069ED
:1014300008B313F001022CD000226369A2605B4262
:10144000A36160B3002070BD284600F085F9294BE8
:101450009C42E0D16C68B4F90C2093B21907E6D431
:10146000DD063CD5580726D4206942F00803A38145
:101470009BB20028DDD103F42072B2F5007FD8D0F2
:101480003046214600F08EFCA389206913F001024A
:10149000D2D1990758BF6269A2600028D2D1B4F9AD
:1014A0000C301A06CFD543F04003A3814FF0FF3034
:1014B00070BDAC68B6E7616B51B104F14403994269
:1014C00004D03046FFF7D0FAB4F90C200023636350
:1014D0000023206922F02402C4E90003C5E70923A0
:1014E00042F0400233604FF0FF30A28170BD00BF78
:1014F000000C0020E8E50008C8E50008A8E50008A1
:101500002DE9F0418F890C463A07804641D44B685B
:10151000002B59DDE66A002E53D0002317F48052C9
:10152000D8F80050216AC8F8003051D10123404654
:10153000B047431C5FD0A789E66A216A7F0705D5BB
:101540006268636B801A0BB1236CC01A02460023D9
:101550004046B047461C45D1D8F80030B4F90C20BD
:10156000002B55D01D2B01D0162B5AD100222369F8
:10157000C4E90032616BC8F8005011B304F14403B0
:10158000994202D04046FFF76FFA00206063BDE841
:10159000F0810E69AEB10D680E60B90714BF00236B
:1015A0006369AD1BA3600AE02B463246A76A216A35
:1015B0004046B8470028A5EB000506440ADD002D8B
:1015C000F2DC0020BDE8F0810B6C002BA2DCF8E718
:1015D000606DB3E7A3894FF0FF3043F04003A38170
:1015E000BDE8F081002322696360A3892260DA04E8
:1015F000C0D56065BEE7D8F80030002B9BD01D2B0E
:101600000CD0162B0AD0A38943F04003A381D9E75D
:101610002169C4E90013D304ACD5EAE7C8F8005047
:10162000CFE742F04002A281CCE700BF38B50B699A
:101630001BB30C46054608B183691BB3184B9C428B
:101640001ED0184B9C4220D0174B9C4208BFEC6820
:10165000B4F90C308BB1626ED00701D4990516D560
:1016600028462146FFF74CFF636E0546DA0702D491
:10167000A3899B050FD5284638BD0025284638BDCF
:101680006C68E5E700F068F8D8E7AC68E0E7A06DC3
:1016900000F050FBE4E7A06D00F054FBEBE700BF67
:1016A000E8E50008C8E50008A8E5000820B1054BFA
:1016B00001461868FFF7BABF034B0449186800F0E9
:1016C00007BB00BF000C0020A4E500082D16000891
:1016D000014900F0FDBA00BF2D16000808B5436EA1
:1016E000DA0702D483899B0501D5002008BD806DEF
:1016F00000F020FB002008BD08B5436EDA0702D4D5
:1017000083899B0501D5002008BD806D00F01AFB80
:10171000002008BD70B568254A1E05FB02F50E467F
:1017200005F17401FFF7F4F9044640B100210C30D3
:10173000666005F168022160A060FEF787FF204621
:1017400070BD00BF024B0349186800F0C1BA00BF6A
:10175000A4E500082D1600082DE9F84F05463A4883
:1017600000F0E8FAAB69002B69D1384AC5E91233B9
:1017700012682B65AA4208BF0123354908BFAB6137
:10178000A962284600F072F86860284600F06EF8FA
:10179000A8602846002400F069F804236E68E86019
:1017A00021467466C6E90044B460C6E90444B461E5
:1017B000F36006F15C000822FEF748FFDFF89CB0FA
:1017C000AF68DFF89CA0DFF89C90DFF89C80214B8D
:1017D000C6E9086BC6E90AA9C6F830802146FB6055
:1017E0007C66C7E90044BC60C7E90444BC6107F1FA
:1017F0005C000822FEF72AFFEE68174BC7E9087B5A
:10180000C7E90AA9C7F830802146F3607466C6E9C3
:101810000044B460C6E90444B46106F15C000822E7
:10182000FEF714FF0123C6E9086BC6E90AA9C6F84A
:1018300030800548AB61BDE8F84F00F083BA02483C
:10184000BDE8F84F00F07EBA84330020A4E500081C
:10185000D11600080900010012000200F51F00085F
:101860001D2000085D2000087D20000870B5064698
:10187000244800F05FFA244B1D68AB697BB3483500
:10188000D5E90134013B05D525E0013B5A1C04F1A3
:10189000680420D0B4F90C20002AF6D100251B4B97
:1018A00004F15800E360656600F03CFA154800F06A
:1018B00049FA2560C4E90155C4E90455A5612946E2
:1018C000082204F15C00FEF7C1FEC4E90D55C4E92D
:1018D0001255204670BD2C682CB12546D0E728460D
:1018E000FFF73AFFCBE704213046FFF713FF04462A
:1018F00028600028F1D1034800F024FA0C2333605B
:10190000E7E700BF98330020A4E500080100FFFFCF
:10191000014800F00FBA00BF98330020014800F0E2
:1019200011BA00BF98330020014800F003BA00BF8D
:1019300084330020014800F005BA00BF8433002042
:1019400008B5054800F0F6F9044B05491868BDE8EC
:10195000084000F099B900BF98330020000C002027
:10196000DD16000808B5054B0549186800F08CF92C
:10197000BDE80840034800F0E5B900BF000C0020B6
:10198000F9160008983300209368002B00F0FC80C3
:101990002DE9F04FB1F90C300C469BB2190783B01A
:1019A000824690462BD522694AB313F00202D8F83A
:1019B000006033D000273D46D4F828B0216ADFF814
:1019C000C492C5B14D452B463A4628BF4B465046BA
:1019D000D847002840F3CE80D8F8083007441B1AB7
:1019E0002D1AC8F80830002B00F0B380D4F828B0C6
:1019F000216A002DE6D1D6E900750836E1E72146D7
:101A00005046FFF7FDFC002840F03781B4F90C3058
:101A1000D8F800609BB213F00202CBD113F0010999
:101A200040F0B4804D46A7682068002D55D09A0537
:101A300040F1C080AF42BB4600F2EE8013F4906FDD
:101A40002FD0D4E9041707EB4707A0EB010B07EBF6
:101A5000D777681C7F105844B8423A4684BF07467F
:101A60003A465B0540F1F08011465046FFF750F8CA
:101A7000002800F0FC805A4621690190FEF770FDB5
:101A8000A289019B22F4906242F08002A281A7EB1E
:101A90000B0203EB0B006761AB462F46236120600E
:101AA000A2605A46494600F00DFA2368A2685B44DA
:101AB000AB460025D71BA7602360D8F80870D9442F
:101AC000A7EB0B07C8F80870002F42D0B4F90C3010
:101AD000A7689BB22068002DA9D1D6E900950836E9
:101AE000A3E70BF1080353F8047C9B4653F8086CFA
:101AF0000833002FF7D03A460A21304600F09CF90F
:101B0000002854D00130A0EB06094B46206821691B
:101B1000BB4228BF3B468842626903D9A568154489
:101B2000AB421ADC9A4200F381801346A56A324622
:101B3000216A5046A847051E1CDDB9EB05096ED089
:101B40000120D8F808302E445B1B7F1BC8F80830F2
:101B500013BB002003B0BDE8F08F31462A4600F0E9
:101B6000B1F9236821462B4423605046FFF75EFD00
:101B70000028E2D0B4F90C304FF0FF3043F04003BE
:101B8000A38103B0BDE8F08F002070473346914633
:101B9000104617464E469B46002FA2D00028B4D1CF
:101BA0003A460A21304600F047F90028AAD17B1CAA
:101BB0009946ABE72369834217D36269AA4214D8D6
:101BC0002F4BA76A9D4294BF2B466FF0004393FBB7
:101BD000F2F3216A02FB03F350464A46B847B0F1DC
:101BE000000BC7DDA5EB0B0567E7AF4228BF2F460B
:101BF00049463A4600F066F9A3682268DB1B3A447E
:101C0000BB46A3602260002BECD121465046FFF773
:101C10000DFD0028E6D0ADE72F46AB4641E7214653
:101C20005046FFF703FD00288BD0A3E71A46314644
:101C30001D46019300F046F9A1682268019BC91A6C
:101C40001344A160236078E7504600F0ADF90346E5
:101C500000287FF41CAF21695046FEF705FF0C22D7
:101C6000B4F90C30CAF8002023F0800384E70C227A
:101C7000B4F90C30CAF800207EE74FF0FF3069E776
:101C8000FEFFFF7F00FCFF7F2DE9F04110F14807C8
:101C90001AD088460026D7E90154013D0ED4A38905
:101CA000013D012B06D9B4F90E30013302D0204694
:101CB000C04706436B1C04F16804F0D13F68002F55
:101CC000E9D13046BDE8F0813E463046BDE8F081BE
:101CD0002DE9F84310F148061ED0884607464FF01C
:101CE0000009D6E90154013D10D4A389013D012B1F
:101CF00008D9B4F90E30013304D021463846C04724
:101D000049EA00096B1C04F16804EED13668002E24
:101D1000E7D14846BDE8F883B1464846BDE8F883B8
:101D2000704700BF704700BF704700BF704700BFDB
:101D3000704700BF704700BF012070470120704707
:101D4000704700BF704700BF70B50C46B1F90E1068
:101D500096B0002916461D4613DB6A460AF0C7FEF8
:101D600000280EDB019A4FF4806302F47042A2F562
:101D70000052B2FA82F2002052092A60336016B093
:101D800070BD0022A3892A601B0604D540230020D1
:101D9000336016B070BD4FF480630020336016B01E
:101DA00070BD00BF8A890B46920706D5012103F159
:101DB000470259611A601A61704770B582B001AB71
:101DC0006A460C460646FFF7BFFF009905463046B7
:101DD000FEF79EFEB4F90C3070B1164A0099B2625B
:101DE000019A43F08003A3812060C4E904018AB909
:101DF0002B43A38102B070BD9A05FBD4012123F0CF
:101E0000030304F1470243F00203A38161612260EE
:101E10002261EFE73046B4F90E100AF074FE10B9F3
:101E2000B4F90C30E4E7A38923F0030343F0010382
:101E30001BB2DDE7D1160008830770B4CDB23DD0E8
:101E4000541E0AB30378AB421FD0431C05E014F1C3
:101E5000FF3419D30278AA4217D013F0030F1846A3
:101E600003F10103F3D1032C11D84CB30378AB4237
:101E70000BD00444431C02E00278AA4205D09C42E5
:101E8000184603F10103F7D1002070BC70470246E9
:101E90000E02B6B22E4346EA064613681046734059
:101EA000A3F1013121EA030313F0803F02F10402A0
:101EB000DCD1043C032C1046EFD8D6E71446D2E719
:101EC0002046E2E78842F0B40DD98B1883420AD944
:101ED000841832B1224613F8014D994202F8014D9F
:101EE000F9D1F0BC70470F2A0ED80346541E002AC1
:101EF000F7D001340C44013B11F8012BA14203F847
:101F0000012FF9D1F0BC704740EA01039B073AD199
:101F1000A2F110073F0901F1200606EB071601F1B7
:101F2000100300F1100453F8105C103344F8105CF7
:101F300053F81C5C103444F81C5C53F8185C44F8EB
:101F4000185C53F8145CB34244F8145CEBD17B1C6E
:101F50001B0112F00C0F194402F00F05034415D0B9
:101F60000E46043DAD0803EB850C1C1F56F8047BA0
:101F700044F8047F6445F9D10135AD002B44294470
:101F800002F00302B2E7541E0346B2E72A46ADE769
:101F90000148FFF7CFBE00BF883300200148FFF79C
:101FA000D1BE00BF8833002009B3F8B51446CAB1CA
:101FB00006460D4600F066F8A04202D32F4638468A
:101FC000F8BD21463046FEF7A3FD07460028F6D0AF
:101FD00022462946FEF7C4FA30462946FEF744FD5C
:101FE0003846F8BD2746FEF73FFD3846F8BD114696
:101FF000FEF78EBD10B50C46B1F90E100AF05FFD6C
:10200000002803DB636D0344636510BDA38923F4DB
:102010008053A38110BD00BF002070472DE9F0411F
:10202000B1F90C409846E3050D461746B1F90E107C
:10203000064609D424F48054AC8143463A463046DF
:10204000BDE8F0410AF042BD022300220AF03CFD47
:10205000B5F90C40B5F90E10ECE700BF10B50C4611
:10206000B1F90E100AF030FDA389421C0EBF23F413
:10207000805343F480536065A38110BDB1F90E1005
:102080000AF026BD51F8043C181F002BBCBF0B58AA
:10209000C01870470E4A0023114610B5147C8442C4
:1020A0000FD11C225343CA18906848B1CB58FF285F
:1020B00018BF43434FF0010018BF5B00013353606A
:1020C00010BD0133082B02F11C02E7D10020F7E715
:1020D000D80E0020F0B50A4D00242E462F7C8742F2
:1020E00007D11C2000FB0464012061762276A376D0
:1020F000F0BD0134082C05F11C05EFD10020F7E7F5
:10210000D80E0020094A30B500231446157C8542BC
:1021100005D11C22012002FB0343596030BD01336D
:10212000082B02F11C02F1D10020F7E7D80E0020A5
:1021300070B50B4C00232546267C864209D11C2015
:102140004343E818E95000238260C36043740120D0
:1021500070BD0133082B04F11C04EDD10020F7E71A
:10216000D80E0020F8B500252E46334C6368002BAE
:102170005ED0E06858BB637CB3FA83F35B09637499
:1021800008F03EFCD4E900239342E06035D266605B
:102190006674E66063699BB1207C984780B1A36850
:1021A000FF2B0DD1677E217EA37E47EA01021A43F1
:1021B00006D0207CFF2823D11A46384606F0DAF9EB
:1021C0000135082D04F11C04D0D10120F8BD08F020
:1021D0005DFC23689842CED26368002BDAD020469B
:1021E00002F0AEF80028EBD0637C207CABB1FF2876
:1021F0000DD1A27E217E607EE0E79B1A6360EBE753
:102200005E28DDD80A46394605F00AFBD8E75E2885
:10221000D6D8A37E227E617EF6E7FF2803D11A4638
:1022200019461846CAE75E28CAD81A461946EBE787
:102230006374E360C4E700BFD80E002007B543789D
:102240008DF8003083788DF80130C3788DF8023036
:1022500043798DF80330037968468DF804300BF02C
:1022600055FD03B05DF804FB08B5074B5A78022A08
:1022700007D8586808F00AFCC72894BF002001203E
:1022800008BD0020FCE700BF9C0C0020704708B58B
:10229000002240214FF080400AF0D8FDFFF7F6FF02
:1022A00000BF00BF00BF00BF00BF00BF00BF00BF36
:1022B00000BF00BF00BF00BF00BF00BF00BF00BF26
:1022C00000BF00BF08BD08B501F020F808BD000040
:1022D00008B5064C002120780BF02CFD2078FFF784
:1022E000F2FF052009F053FCF4E700BF702F002037
:1022F00010B5084C236803F07142074B1343236069
:1023000008F07EFB054B18602068BDE8104003F024
:102310006FBA00BF702F00200001010E4C11002089
:1023200008B5012280214FF080400AF08FFD4FF068
:10233000804380229A61BDE8084001F0B3B80120D3
:1023400070470000144B10B51C78BCB9134B1B78B8
:10235000042B13D103F028F903F03CF903F0F0F853
:1023600003F080F904F04CF804F066F8204608F019
:10237000A7F92046BDE8104008F0BEB90BF08CFF6D
:1023800048B10BF051FC0028FBD1BDE8104044F6E9
:10239000206009F0FCBB10BD702F0020203300200E
:1023A00038B500230D460B70074C30B108F028FB00
:1023B000002320602B70002038BD206808F066FBE9
:1023C0003228F3D8F7E700BF5C110020084B9A7859
:1023D000012A07D0022A09D0064B1868B0FA80F00B
:1023E0004009704758780128F6D170470120FCE772
:1023F0009C0C00204016002008B5054B9B78013B43
:10240000012B02D9FFF7E2FF08BD0120FCE700BF66
:102410009C0C002008B508F0F3FA014B986008BD49
:102420009C0C00202DE9F0410C461546074600287B
:1024300038D0B1FA81F35B09A3B14D4E4FF0804221
:102440003378002C32D08021012B91610AD03046A4
:102450000AF0BCFC30460AF09EF84648464B8360C2
:1024600008F0FAF8A74201D0FFF76CFF434E33782B
:10247000A34200D11DB10022414B9A611A773470FA
:1024800024B1631E042B747098BFB470306803F0DD
:10249000AFF93378062B64D8DFE803F06119303ADE
:1024A000444E58000B1C18BF0123C5E74FF4000130
:1024B000042B9161D6D0334BDFF8B8801C70324BBF
:1024C0003046C8F8083008F06DFE4046C8E73120B5
:1024D00045B10BF0E9FB52200BF0E6FB01200BF0BD
:1024E000EFFB51200BF0E0FBFFF794FF2A4621465B
:1024F000384601F0E5FB0120BDE8F0813220002DD7
:10250000F0D00BF0D1FB52200BF0CEFB0220E6E71F
:102510003320002DE6D00BF0C7FB52200BF0C4FB9C
:102520000320DCE73420002DDCD00BF0BDFB522073
:102530000BF0BAFB0420D2E73520002DD2D00BF0EF
:10254000B3FB52200BF0B0FB0520C8E73020002D74
:10255000C8D00BF0A9FB52200BF0A6FBC1E711205D
:10256000C0E711200BF0A0FBFFF7C2FEBCE700BFE5
:1025700020330020201100203D220008702F002071
:10258000640C0020B0230020A9B20008002313B57A
:102590000DF107018DF80730FFF702FF044690B1F7
:1025A0009DF80730013B032B0DD8DFE803F002064E
:1025B0000F1200221146094B02E00022074B9978C6
:1025C0001878FFF72FFF204602B010BD0022062129
:1025D000F1E7024B00225978F2E700BF702F00208C
:1025E00013B5124C20460BF0C3FA0123637703F0B6
:1025F000FCF80F4C206008B9FFF77AFEE37843F04F
:102600000103E37008F0FCF90A4BFF221860002375
:102610004FF49A6100930848084B09F085FAFFF7D8
:1026200036FE0120FFF7B2FF02B010BD640C00209F
:10263000702F00204C11002060110020D1220008D2
:1026400038B5114C054623782070637008F0D8F92E
:10265000032D606016D10120FFF798FF40B90B4AA7
:10266000537812785AB1024619461846FFF7DAFE37
:10267000FFF7D0FEBDE8384053200BF015BB1146E4
:102680001846F3E738BD00BF9C0C0020702F0020D7
:10269000014B1878704700BF9C0C0020014B9870CC
:1026A000704700BF9C0C0020014BD870704700BFE2
:1026B0009C0C0020014BD878704700BF9C0C002078
:1026C0000122014B1A70704758110020F8B5164BC3
:1026D0009C681CB9FFF79EFE0020F8BD134D144EF8
:1026E0002A7892B100232B704FF080431B69F27857
:1026F0009B0963F30002F27032680E4B1340B3F192
:10270000807FE9D000F028FEE7E7F3780A4AC3F3B8
:10271000420352F82370002FDED0204608F0B6F9AD
:10272000B842DFD2D8E700BF9C0C0020581100202F
:10273000702F0020FF00000144E600080C4B10B58C
:102740005A781946012A03D0022A08D0002005E051
:102750009C78012C03D100F061FE204610BD486832
:1027600008F094F9C728F1D9FFF730FEF6E700BF6B
:102770009C0C002008B5074BDB780BB1022B04D171
:102780000220FFF75DFF002008BD0320FFF758FF80
:102790000120F9E79C0C002038B5094D0024E878A9
:1027A000032807D1FFF74CFF2046AC7000F0E4FD92
:1027B000012038BD0220FFF743FF2046F9E700BFA4
:1027C0009C0C002070B5754C754D2068A0B108F0C8
:1027D0005DF9B0F5FA6F0FD30026552026600BF097
:1027E00063FA57200BF060FA287832460146B0FAB7
:1027F00080F04009FFF716FE2B781BB1694BDA7F9A
:10280000694B1A702368ABB9684C206808F03EF930
:1028100040F6B73398420DD92B785BB10BF004FA30
:1028200040B9604B5B7F2BB108F0EAF82060532081
:102830000BF03AFA4FF080431B69EA789B095C4C35
:1028400063F300020020EA70FFF7A0FE2378032B59
:102850001ED8DFE803F0021E448AE36833B19847CC
:1028600020B10120FFF7ECFE0023A370236933B1F0
:10287000984720B10120FFF7E3FE0223A3706369AC
:1028800033B1984720B10120FFF7DAFE0123A3708E
:1028900070BDA369002BFBD098470028F8D001F049
:1028A0007DFB444B187006F025FC0021424A2B7832
:1028B00013703C4A51776BB9404C2378012B09D0F7
:1028C0004FF08043802220469A610AF07FFA20462A
:1028D00009F061FE0220BDE87040FFF7B1BEE36978
:1028E000002BD5D098470028D2D04FF080434FF42A
:1028F00080229A61A37813B3022B0BD86378022B42
:1029000008D0FFF71FFD11200BF0CEF90BF08CF96A
:102910000028FBD100F012FD0023E370264B2A783B
:102920001B789A4202D1A07800F088FAA378012B94
:1029300018D0A3B1022BABD1FFF72EFFA8E7194B9C
:102940005B7E002BE6D111200BF0AEF90BF06CF999
:102950000028FBD147F2305009F019F9DAE7FFF708
:1029600009FF95E701F02EFD92E7236A002B8FD037
:10297000984700288CD001220A4B5A770D4B1B78C0
:102980002BB14FF0804304229A6106F099FB00F0CE
:10299000C9FCFFF73FFD00209DE700BF4C11002060
:1029A000702F0020640C0020B02300205411002060
:1029B0009C0C0020481100205011002020330020E2
:1029C0000120704708B5FFF7FBFF08BD37B5044687
:1029D0000D46FFF71FFD29462046FFF7F3FF60B1C4
:1029E000074B1A784AB1074B20461B78D90900914A
:1029F000C3F3001369790BF0A3FC03B030BD00BF33
:102A0000702F0020782F002008B5074807F016F92E
:102A1000064807F013F90BF003F907F00FF9BDE8CA
:102A20000840034807F00AB964E600087FE600089A
:102A3000A6E600082D4B13B51A7804466AB12C4B54
:102A400001211B78DB09009300230BF079FC0BF0CC
:102A5000EBF80028FBD102B010BD0028FBD0031F0B
:102A6000DBB2A02B12D8234B0146186807F07EFE7C
:102A700020B1204602F05CFD02F0F4FD204602F099
:102A80004FFD02B0BDE8104002F0ECBD00F12003A4
:102A9000DBB2072B07D800F007040120A040C0B22A
:102AA00002F072FDEDE700F15B03DBB2022B06D80A
:102AB000114AD05C02B0BDE8104007F001BE00F141
:102AC0005803DBB21A2B07D80C4A32F8130002B0B5
:102AD000BDE8104007F010BE3334E4B2122CBAD86F
:102AE000012102B0BDE8104001F0B7BE702F0020F8
:102AF000782F0020C40F002008E600080CE600082C
:102B0000264B13B51A7804466AB1254B1B78DB09AE
:102B10000093002319460BF013FC0BF085F80028F6
:102B2000FBD102B010BD0028FBD0031FDBB2A02BED
:102B300006D802F0FDFC02B0BDE8104002F092BDE4
:102B400000F12003DBB2072B07D800F007040120B7
:102B5000A040C0B202F020FDEDE700F15B03DBB264
:102B6000022B05D8104602B0BDE8104007F0A8BD02
:102B700000F15803DBB21A2B05D8104602B0BDE8AD
:102B8000104007F0B9BD3334E4B2122CC9D8114655
:102B900002B0BDE8104001F060BE00BF702F002001
:102BA000782F00202DE9F3410546E0B1134E32782D
:102BB000E2B10127DFF84880284601F0DBFD98F8F4
:102BC00000300446DB09E030009332780023012115
:102BD00080B20BF0B5FB0BF027F80028FBD107FA09
:102BE00004F4A543E8D102B0BDE8F08102F0CCFCCA
:102BF00002B0BDE8F04102F035BD00BF702F0020EB
:102C0000782F00202DE9F3410546E0B1134E3278CC
:102C1000E2B10127DFF84880284601F0ABFD98F8C3
:102C200000300446DB0900930023E0303278194677
:102C300080B20BF085FB0AF0F7FF0028FBD107FA02
:102C400004F4A543E8D102B0BDE8F08102F0A4FC91
:102C500002B0BDE8F04102F005BD00BF702F0020BA
:102C6000782F00202DE9F3410546E0B1134E32786C
:102C7000E2B10127DFF84880284601F07BFD98F893
:102C800000300446DB09E030009332780023012154
:102C900080B20BF055FB0AF0C7FF0028FBD107FA02
:102CA00004F4A543E8D102B0BDE8F08102F082FC53
:102CB00002B0BDE8F04102F0D5BC00BF702F00208B
:102CC000782F00202DE9F3410546E0B1134E32780C
:102CD000E2B10127DFF84880284601F04BFD98F863
:102CE00000300446DB0900930023E03032781946B7
:102CF00080B20BF025FB0AF097FF0028FBD107FA02
:102D000004F4A543E8D102B0BDE8F08102F05AFC1A
:102D100002B0BDE8F04102F0A5BC00BF702F00205A
:102D2000782F002038B51C4B1B7863B91B4C1C4D09
:102D30002378052B04D14FF080431B695A0603D436
:102D400007F05EFE286038BD28680028F8D007F03C
:102D50009DFE41F658339842F5D907F051FE2860A0
:102D600025462378052B05D002F07CFCBDE83840D1
:102D700003F046BB07F00DFEB4F84C309B07F0D5CE
:102D800007F0EEFD0028ECD0284609F093FC284619
:102D900001F080F8E5E700BF702F0020203300200D
:102DA00030160020704700001A4B70B59C6C0F263F
:102DB00044F4C0649C649B6C012301F003048B40C9
:102DC00021F0030101F1804101F5A0518D68A400BB
:102DD000C0F38320A04006FA04F425EA0405284342
:102DE0008860D8430C4912F0010F8C6814BF1C4353
:102DF00004408C6012F0020FCA6814BF1A430240EC
:102E0000CA60054A536111680B431360536803405D
:102E1000536070BD000C0140001800400120704755
:102E200008B5FFF7FBFF38B1BDE8084001220621D5
:102E30004FF08040FFF7B8BF08BD00002DE9F04714
:102E40003023054683F31188824B00269A6C4FF09D
:102E5000010842F4C0629A649A6CD3F890207E4FC5
:102E600042F4C062C3F89020D3F89020DFF81492A7
:102E700022F4C062C3F89020D3F89030FFF7D0FF5F
:102E800057F8040B95B1012D49D1484547D120F0A1
:102E90000F0A00F00F0008FA00F421460522504600
:102EA000240409F0D3FFCAF8184001E0441CEED115
:102EB0000136112EE4D107240127684EDFF8C881BE
:102EC00056F8040B002D36D0012D40F0B680404559
:102ED00040F0B38000F00F01202207FA01F120F04A
:102EE0000F0009F0B3FF00BF00BF00BF00BF00BF6D
:102EF00000BF00BF00BF00BF00BF00BF00BF00BFDA
:102F000000BF00BF00BF00BF00BF56F8040C032283
:102F100000F00F0120F00F00FFF746FF0DE0411C0D
:102F2000C6D000F00F01202208FA01F120F00F00B6
:102F300009F08CFFBCE7421CCCD1013CC0D184F32A
:102F4000118872B6464A47491368424823F0010384
:102F500013600323444A93620C23D362434B0B60F8
:102F600001238460C36042480860A1F5A0418C67DA
:102F700040499462D462A2F5684251611946002228
:102F8000A30003F1604303F56143D3F80001D5B218
:102F9000012D94BF002000F0010008B1C3F880119A
:102FA0000132202AF1D10134082CE8D1324C636877
:102FB00043F00073636009F029FF2B4B1A6802F09D
:102FC00009021A601A6842F46C3242F004021A6074
:102FD00040F2B3321A62294B43F001039847236948
:102FE00043F00403236130BF254B43F001039847AE
:102FF00023691B4A23F004032361136843F0010390
:10300000136008F093F9134B9A6C42F4C0629A640F
:103010009A6C9A6C42F480429A649A6C9A6C42F46C
:1030200080529A649B6CFFF7BDFE02F087FF00237D
:1030300083F3118862B6BDE8F087431C3FF47DAF8F
:1030400000F00F01402207FA01F120F00F0009F013
:10305000FDFE72E7000C01402CE70008CCE70008F9
:1030600010E000E0005401400000014014000003A3
:1030700010000003FFFF070000ED00E0A4E70008D8
:1030800070E700080E040040030000400120704774
:1030900001207047012303FA01F2024210B50C46E9
:1030A0000DD003290CD006290CD10320FFF7FCFA20
:1030B0002046FFF7EBFF10B12046FFF7E9FF10BDF8
:1030C0000420F3E71846F1E710B5094C6369DB0704
:1030D00007D52368002123F0010323600120FFF7B7
:1030E000D9FF4FF0FF336361BDE8104008F0F8BD31
:1030F0000018004010B5094C606910F0020006D0BD
:103100002368012123F002032360FFF7C3FF4FF080
:10311000FF336361BDE8104008F0E2BD00180040D5
:1031200010B5094C606910F0040006D02368022134
:1031300023F004032360FFF7ADFF4FF0FF3363611B
:10314000BDE8104008F0CCBD0018004010B5094C97
:10315000606910F0080006D02368032123F00803FB
:103160002360FFF797FF4FF0FF336361BDE8104026
:1031700008F0B6BD0018004010B5094C606910F0A9
:10318000100006D02368042123F010032360FFF70A
:1031900081FF4FF0FF336361BDE8104008F0A0BD30
:1031A0000018004038B5214B5C69A00604F478751E
:1031B00007D51A68052122F020021A602846FFF779
:1031C00069FF610608D5194A06211368284623F0CD
:1031D00040031360FFF75EFF220608D5134A07215C
:1031E0001368284623F080031360FFF753FFE305BD
:1031F00008D50E4A08211368284623F4807313600B
:10320000FFF748FF14F4007F084C07D0236809211A
:1032100023F4007323602846FFF73CFF4FF0FF3391
:103220006361BDE8384008F05BBD00BF0018004096
:1032300038B5264B5C69620504F47C4507D51A68ED
:103240000A2122F480621A602846FFF723FF200536
:1032500008D51E4A0B211368284623F40063136027
:10326000FFF718FFE10408D5184A0C211368284617
:1032700023F480531360FFF70DFFA20408D5134A0F
:103280000D211368284623F400531360FFF702FF53
:10329000630408D50D4A0E211368284623F48043A1
:1032A0001360FFF7F7FE14F4004F084C07D02368B3
:1032B0000F2123F4004323602846FFF7EBFE4FF075
:1032C000FF336361BDE8384008F00ABD00180040D4
:1032D00010B5074C23784BB900F0A4FE01F067FA53
:1032E00007F0C0F901F064FA01232370012010BD3A
:1032F0003516002010B5044C23781BB100F094FE65
:1033000000232370012010BD35160020024B1B78CE
:103310000BB10AF093BC70473816002001207047AB
:103320000120704708B5044B1B780BB9FFF7D0FF9D
:10333000FFF7F4FF08BD00BF3516002008B5044BA9
:103340001B780BB1FFF7D6FFFFF7EAFF08BD00BF00
:10335000351600200120704708B5FFF7FBFF08BDB8
:10336000014B1878704700BF36160020014B1870CB
:10337000704700BF36160020014B1870704700BF21
:1033800036160020014B1878704700BF3716002012
:10339000084B10B50446187058B9FFF779F90228A0
:1033A00007D80320FFF74CF92046BDE81040FFF78F
:1033B00075B910BD37160020FFF7EABF024B187829
:1033C00080F00100FFF7E4BF37160020084B1A78A1
:1033D000084B1B784BB982F00102A0F5A443203BB7
:1033E0001F2B8CBF1046012070470022F5E700BF5D
:1033F000371600203616002000231946054A93721E
:103400001360054A01330B2B917242F80C1BF9D162
:10341000704700BF54160020C00C002008B502F011
:10342000FFFDFFF7E9FF0022014B1A6008BD00BF56
:103430004016002008B505F0A5FE18282CD817283E
:1034400003D2062801D00DD880B9002328201A46BF
:10345000194604F0E5F900235C201A46194604F0E9
:10346000DFF903E00828F0D00A28EED007F002F9CF
:10347000820705D5442328201A46194604F0D0F9BE
:1034800007F0F8F8430705D544235C201A4619468F
:1034900004F0C6F9012008BD1C28E7D31E28D4D9A2
:1034A0002028E2E708B5FFF713FFFFF799F800F0CF
:1034B00093FD50B1012204214FF0804009F0C6FC79
:1034C0004FF080434FF480229A6108BD38B5002345
:1034D0000C4A4FF0804413700B4A4FF48025137050
:1034E0000A4A1360FEF796FF05F024FE012801D07A
:1034F00005F018FEA56100F07BFDBDE8384002F044
:1035000008BA00BF34160020391600203C160020EF
:1035100008B502F0CFF904F039F902F05FF9084B71
:10352000188060F07F001870188802F05AF900F0D7
:10353000D3FD18B1BDE80840FFF7C8BF08BD00BF04
:10354000782F002037B504460D4600F0D6FD002840
:1035500000F0BD80002D00F0BA8047F604639C4265
:1035600000F0858029D847F601639C425BD00AD8D9
:1035700047F603439C4200F0A780B4F5FC4F3CD0D3
:10358000284603B030BD47F602639C425DD047F643
:1035900003639C42F4D100230DF1070101208DF853
:1035A0000730FEF7FDFE9DF80730042B02D013F024
:1035B000FD0FE5D10122042130E047F612639C4261
:1035C0007BD00BD847F605639C4263D047F6116366
:1035D0009C42D5D10020FFF7DBFED1E747F613630D
:1035E0009C426ED047F643639C42C9D10122394BBD
:1035F0001A700022384B1A60C2E700230DF1070150
:1036000001208DF80730FEF7CBFE9DF80730042B24
:1036100002D013F0FD0FB3D1012211462F4B1878C1
:10362000FEF700FFACE700230DF1070101208DF844
:103630000730FEF7B5FE9DF80730042B02D013F0DB
:10364000FD0F9DD101220221E8E700230DF10701C2
:1036500001208DF80730FEF7A3FE9DF80730042BFC
:1036600002D013F0FD0F8BD101220321D6E70023F6
:103670000DF1070101208DF80730FEF791FE9DF84E
:103680000730042B03D013F0FD0F7FF479AF012234
:103690000521C3E700230DF1070101208DF8073054
:1036A000FEF77EFE9DF80730DA1E012A02D9002BB4
:1036B0007FF466AF01220621B0E70122084B1A70A1
:1036C0005EE7FFF77BFE5BE7FFF722FF58E7054663
:1036D00056E700BF391600203C160020702F00204E
:1036E0003716002070B5154CFFF76CF8206858B1FC
:1036F000A37A4BB907F0CAF96368984204D3012151
:103700002089A172FFF71EFF002501260C4C2068BE
:1037100058B1A37A4BB907F0B9F96368984204D35A
:10372000A67201212089FFF70DFF01350B2D04F151
:103730000C04ECD100F07AFC70BD00BF54160020E0
:10374000C00C002008B5064B1B780BB9FFF7C0FD75
:103750004FF0804304229A61BDE8084007F0FFB8AB
:103760003516002008B5074B1B780BB1FFF7C2FDDB
:103770004FF080434FF480229A61BDE8084007F083
:10378000EDB800BF351600202DE9F7430D46AD4AD0
:1037900049790446136891B1032B00D80133AA4E2E
:1037A0001360FEF737FE33899C4204D16F7957B11D
:1037B00007F026F93060A54B0027984629E0002B3A
:1037C000EDD0013BEBE7B37A0BB93360F3E7394651
:1037D0002046FFF7B7FEB77237600028EBD1002014
:1037E00095E07E4308EB0607BB7A13B948F806302C
:1037F0001DE049462046FFF7A5FE87F80A9048F8E5
:1038000006900028EBD012E001370B2F03F10C03D8
:103810000DD01A899442F7D195F805900C26B9F18C
:10382000000FDED007F0ECF87E4348F8060029468A
:103830002046FFF7CBFD0028D1D02946204600F0D6
:103840005FFC0028CBD047F604639C4200F0C180A7
:103850002CD8B4F5FC4F67D009D847F620039C421A
:1038600000F0158147F603439C42B8D02EE047F69E
:1038700002639C426B7900F0918074D9002BAED02A
:10388000734C2278042AAAD000230DF107010120ED
:103890008DF80730FEF784FD9DF80730042B02D029
:1038A00013F0FD0F9BD10022042158E047F640633E
:1038B0009C421ED015D847F606639C4200F0CE808D
:1038C000C0F0A38047F607639C422AD029462046D1
:1038D00000F05EFE002882D029462046FFF776F8E9
:1038E00015E047F642639C4214D009D347F6436380
:1038F000BAE76B79002B3FF472AFFFF785F86EE7FC
:103900006879544B10B101221A7068E7187003B03F
:10391000BDE8F0836B79002B3FF461AFFEF7D0FE7A
:103920005DE76A794C4BEFE76B79002B3FF457AFBB
:10393000474C2278012A3FF452AF00230DF10701D2
:1039400001208DF80730FEF72BFD9DF80730042B82
:1039500003D013F0FD0F7FF442AF00220121207845
:10396000FEF760FD3BE7002B3FF439AF384C22787F
:10397000022A3FF434AF00230DF1070101208DF836
:103980000730FEF70DFD9DF80730042B03D013F030
:10399000FD0F7FF424AF00220221E0E7002B3FF46B
:1039A0001EAF2B4C2278032A3FF419AF00230DF1F0
:1039B000070101208DF80730FEF7F2FC9DF8073073
:1039C000042B03D013F0FD0F7FF409AF0022032175
:1039D000C5E76B79002B3FF402AF1D4C2278052A16
:1039E0003FF4FDAE00230DF1070101208DF80730F3
:1039F000FEF7D6FC9DF80730042B03D013F0FD0F23
:103A00007FF4EDAE00220521A9E76B79002B3FF48E
:103A1000E6AE0F4C2278062A3FF4E1AE00230DF10A
:103A2000070101208DF80730FEF7BAFC9DF807303A
:103A3000DA1E012A02D9002B7FF4D1AE0022062122
:103A40008DE700BF4016002054160020C00C002057
:103A5000702F002038160020341600206B79002BC0
:103A60003FF4BDAE114C2278002A3FF4B8AE0023DB
:103A70000DF1070101208DF80730FEF791FC9DF84C
:103A80000730012B3FF6ABAE0022114667E76B799A
:103A9000002B7FF41BAF05F04DFB4FF0804318B1B6
:103AA0004FF480229A6111E70422FBE7702F002077
:103AB000014B1870704700BF44160020F8B505464A
:103AC0000C46584E584F2146284600F019FC50B17C
:103AD000062C08D8DFE804F004085D9393A0A0004A
:103AE0000022504B1A60F8BD32687ABBA5F147033B
:103AF000042B0BD8DFE803F025201B16030000235E
:103B0000FF211A464B20FEF7E5FA01224FF4FA7125
:103B10002846FEF70DFB2846FEF7BCFA06F070FFBC
:103B20003060E0E7FF22002311464A20EBE7002245
:103B3000FF2311464920E6E70023FF2219464820CB
:103B4000E1E7442347201A461946DCE7104606F011
:103B50009DFF4EF65F23984203D90524334B1C701A
:103B6000B1E7334B1B7883B9472D0ED1314B1B780E
:103B7000042B3FD103232D4C2846237044231A469F
:103B80001946FEF7A7FA24789DE77A7E8AB30324C4
:103B9000E4E73068F8B9A5F14803032BA3D8DFE8C0
:103BA00003F015100B020023FF211A464B20FEF7ED
:103BB00091FA0122C821ABE7FF22002311464A20D7
:103BC000F5E70022FF2311464920F0E70023FF22FA
:103BD00019464820EBE706F059FF4EF65F2398425E
:103BE00001D90624BAE77B7E0BB10424B6E7104B5B
:103BF0001B786BB12846BDE8F840FEF74BBAFF22B0
:103C00004FF4FA612846FEF793FA2846FEF742FA87
:103C10000022064B1A7066E70022044B1A70FEF76A
:103C20004FFDE7E748160020640C002044160020F2
:103C3000702F00202033002008B5034B1978FFF7C0
:103C40003DFF012008BD00BF441600200120704741
:103C500070B506460D464B200021FEF753FA10B909
:103C60000024204670BD00214A20FEF74BFA0028B0
:103C7000F6D000214920FEF745FA0028F0D00021B7
:103C80004820FEF73FFA0028EAD000214720FEF73F
:103C900039FA0028E4D029463046FFF7D7FF04461A
:103CA0000028DDD00022044B29461D70034B30460E
:103CB0001A60FFF703FFD4E74416002048160020DF
:103CC00070B50D461446FEF73AFB064680B155B373
:103CD000174B5B7E2BBB013D052D09D8DFE805F0B6
:103CE000030C120808182CB102214B20FFF7B0FF7B
:103CF000304670BD0121F8E714B102214A20F5E7F2
:103D00000121FBE714B102214920EFE70121FBE784
:103D100014B102214820E9E70121FBE702214720F5
:103D2000E4E71E46E4E7002CF8D10121F7E700BFE5
:103D3000640C0020094B1B787BB9094B1A7832B10F
:103D4000084A527E4AB959781046FEF76BBB064BBB
:103D50001B78042B01D01146F6E77047441600206B
:103D6000702F0020640C0020203300202DE9FF4735
:103D70003F4D06460F4600F0FBFAFFF7DBFF2C78BD
:103D8000002C31D03B4C236813B906F039FE20607B
:103D9000206806F07BFE40F6B733984205D92B78B1
:103DA00001332B7006F02CFE20602B78013B032B97
:103DB00016D8DFE803F0020B0F130022114644204F
:103DC00004F0D8FB002004B0BDE8F08700224421B5
:103DD0001046F5E7002144220846F1E74422EDE7CA
:103DE00000232B702360EDE7234B1B7883B9394602
:103DF0003046FFF71FFB0028E4D039463046FEF777
:103E0000B1F93946304604B0BDE8F04700F0C2BA17
:103E100022462146204604F0ADFBDFF860A0DFF823
:103E200060900DF104080A2551462A464046FCF7E9
:103E300097FB99F81E30E2B2B3FBF5F5954214F802
:103E4000080011D9312B03D90023FF22194605E0C0
:103E50001D2B4FF00003F8D81A46FF21013403F060
:103E6000DFFC0A2CDFD1C2E700231A46EEE700BFD1
:103E7000391600203C1600203416002090E400087B
:103E8000640C0020012804BF014B187006F03EBDF1
:103E90001C110020014807F07ABE00BFA086010077
:103EA000F8B50023374E5E2804463370364D21D1D5
:103EB000364A374F1269F97882F48062C2F3802261
:103EC00062F30001CA072B70F97015D5314A927F51
:103ED000632A17D9304A194613604422FEF7FAF8CC
:103EE000FF22C8215E20FEF723F901232B705E20FC
:103EF000FEF7D0F82878F8BD4FF080431B6913F027
:103F000040030BD00023244A194613605E2044224C
:103F1000FEF7E0F801224FF49671E3E71D4FBA7FF8
:103F20000A2A23D81A464421FEF7D4F80122C821D0
:103F30002046FEF7FDF801232B703370BB7F012B69
:103F4000D5D8154C236813B906F05AFD20602068B7
:103F50000028CCD006F09AFD42F210739842C6D9E0
:103F6000002301202360FFF701FAC0E70A4A19463F
:103F700013601A46FEF7AEF8FF22C8212046FEF76E
:103F8000D7F8B4E74E1600204D1600200008004078
:103F9000702F0020640C002050160020024B18786F
:103FA000C0F34000704700BF742F0020034B1A7805
:103FB00060F341021A70186801F021BC742F0020D0
:103FC000044A137823F0030343F0030313701068CB
:103FD00001F015BC742F002008B500224FF4806159
:103FE000024808F033FF012008BD00BF0008004070
:103FF00010B501F001FC0A4B186008B9FFF7E0FFAB
:104000004FF080444FF48023A36105F093F808B18A
:104010000423A3615E20FEF73DF8012010BD00BF20
:10402000742F00200120704701207047F8B5254CFF
:10403000254A2378002B41D0106806F027FDB0F503
:104040007A7F34D34FF08045204A2B691178C3F32F
:10405000801399421E4E13D02B69C3F38013137043
:104060002B695B060CD51B4F3B78042B08D006F060
:10407000C7FC4FF400033060AB61384607F092F89C
:104080003068A0B106F002FDB0F5FA6F0FD3002240
:10409000104D32602B78042B0BD04FF080438022E0
:1040A00028469A6108F092FE284608F074FA01202A
:1040B000F8BD11462078FEF7B5F9F8E71360044A19
:1040C0001360F4E7702F00206816002060160020AF
:1040D000641600202033002008B54423FF201A4630
:1040E0001946FDF7F7FF0322FA21FF20FEF720F81B
:1040F000FF20FDF7CFFF012008BD01207047000021
:1041000045F22123984270B505460C4600F0CD805B
:1041100017D8B0F5A97F00F0B6800AD8E32800F0E0
:10412000A58040F251139D4200F0AD80012420464D
:1041300070BD40F22B43984200F0A78040F62C035C
:10414000F1E747F62303984236D020D845F22323DF
:10415000984200F0AA8047F620039842E6D14C79B5
:10416000002C39D1614D2878C0F3400080F0010067
:1041700000F00100FFF71AFF2B789B0740F1A380A6
:1041800004F0B0FF4FF0804304229A61CFE747F676
:10419000146398422ED047F6156398424DD047F6E7
:1041A00007639842C2D1524B1B7803B14B79514AF5
:1041B00003F0010313700FE004F0E4FF0B28B5D007
:1041C0000CD8072806D80528B0D20138C0B201287B
:1041D00002D8ABE70928A9D00024A8E7282805D8E9
:1041E0002128A3D21C28A1D01F28F4E72B38C0B265
:1041F0000228EDE7404C207800F0BCFA0228EBD012
:10420000207800F0B7FA88B9022000F018FA0022EE
:1042100044231146FF20FDF75DFF0122FA21FF2014
:10422000FDF786FFFF20FDF735FFD5E7207800F08A
:10423000A1FA0228EBD10020E7E72F4C207800F00C
:1042400099FA02280546C7D1207800F093FA30B9D0
:10425000284600F0F4F9002344221946DAE72078D2
:1042600000F088FA0228F6D10020F2E7224B1878F5
:1042700000F080FA02287FF459AF284664798CB1A7
:1042800000F052F9A8E76479F9E74C794CB11B4B7F
:104290001A7822B90122E2201A7000F045F92B2089
:1042A000EEE72B2000F056F941E76679002E7FF407
:1042B0003DAF124D2C78002C3FF438AFE22000F0D7
:1042C00049F92E7033E706F0D5F910F0FF0F83D1CE
:1042D0002C78C4F34004002C7FF47EAF04F022FF5E
:1042E0004FF080434FF480224FE700BF742F00202F
:1042F000702F002034160020721600204C1600206B
:104300000539012910B5044615D80020FFF7D0FB68
:104310000A4B1B7833B1FEF7D3F92046FDF7BAFEFE
:10432000002010BD4FF080431B695B06F5D40120CF
:10433000FFF72EF8F1E70120F3E700BF702F002010
:1043400008B5037C5E2B0DD1074B1B7813B1074BCF
:10435000187830B900235E201A46194603F060FA37
:10436000002008BD0120FCE7702F00204D16002022
:10437000064B1B789B0702D5054B1B7823B1002207
:104380001146104604F0F6B8704700BF742F0020A5
:104390004E16002008B5094B1B78DB060BD5084BE1
:1043A000187800F0E7F9022805D044230B201A46BC
:1043B000194603F035FA012008BD00BF782F002010
:1043C0007216002008B5FEF775F904280ED00628ED
:1043D00001D003280AD10320FEF732F90020FEF7AE
:1043E0005DF90020FEF7E8FF012008BD0220FEF77E
:1043F00027F90020F9E7000010B548B14FF08044DC
:104400002369590703D404F06DFE0423A36110BD92
:10441000064B1B789A07FAD44FF0804423695B0758
:10442000F5D504F07FFE4FF48023EFE7742F0020D2
:1044300010B50278072A01D0002010BD4278032A67
:10444000FAD18278022AF7D10B4BC4781A7834B9A2
:1044500064F341021A7006F03DFF0120EDE742F0DF
:1044600002021A704FF080431869C0F380000028E0
:10447000E2D104229A61E0E7742F002003280DD8CE
:1044800006290BD8102A09D8772301EB011103FB69
:104490000010034B104433F81000704701207047A0
:1044A000F0E70008012070470C22024B02FB0030AD
:1044B000704700BFB80F0020A0F58073B3F5F85F18
:1044C00010B526D210F4805F00F4007400F48073FD
:1044D00000F4806100F400620DD0002B0CBF0020BE
:1044E00010200CB140F0200009B140F040000AB1AA
:1044F00040F0800010BD181C18BF01200CB140F026
:10450000020009B140F00400002AF3D040F0080096
:10451000F0E70020EEE710B50C46FFF7CDFF23468D
:10452000BDE8104018470000A0F1E003072B10B5CC
:10453000044600D940B920460449FFF7ECFFE0B239
:10454000BDE81040FEF776BA0149F6E7A52B000852
:10455000652C000810B50446C0B2FEF7D1FAA4F1EC
:10456000E003072B00D92CB903492046BDE81040D1
:10457000FFF7D1BF0149F8E7052C0008C52C00085A
:104580000120704708B5FFF7FBFF08BD0120704709
:1045900001207047704708B5FFF7FCFF08BD000019
:1045A00013B502AB03E903000F4B1B78B3B99DF8B9
:1045B0000530009873B16AB100F0BAFC04460146B8
:1045C000009800F083FC2046009902B0BDE810403E
:1045D00001F02CBB00F094FC0446F4E7009800F0D6
:1045E000A7FC0099F1E700BF71160020034600897F
:1045F00010B40A4638B95C881888998840EA0440A3
:1046000010BCFFF7CDBF10BC704738B50121044680
:10461000FFF7ECFF21460546FFF7B4FF18B121462E
:10462000284605F077FC00F0010038BD10B50446BF
:104630000021FFF7DBFF2146FFF7ADFF10BD10B5EE
:1046400001248440E4B2204601F0C4F82046BDE8CD
:10465000104000F09CBB704708B500F03DFBFFF731
:10466000FAFFBDE8084046F2A81007F090BA08B576
:10467000FFF7F2FFBDE8084006F020BA08B5FFF7E3
:10468000EBFFBDE8084006F041BA38B50121054608
:10469000FFF7ACFF2946044604F0E6FF08B9002006
:1046A00038BD29462046FFF76FF80028F7D0294685
:1046B000204605F035FF0028F1D02946204605F0B8
:1046C00053F90028EBD02946204605F0A7FE002824
:1046D000E5D02946204604F091FE0028DFD0294687
:1046E000204605F06BFF0028D9D06B795BB147F607
:1046F00003439C421DD00AD8B4F5F84F16D047F6B4
:1047000001439C4217D02846FFF740FFC8E747F611
:104710005B439C4215D047F65C439C420ED047F663
:104720005A439C42EFD101F031F8ECE7FFF79FFFCD
:10473000B5E701F031F8FFF7A1FFB0E701F01AF893
:10474000E1E701F026F8DEE708B5FFF70BF804F023
:10475000AFFB00F035F8BDE80840012004F08CBC48
:1047600008B500F032F8002004F086FCBDE80840EF
:10477000FEF7E8BF03091CBF1846042382081EBFCA
:1047800010460233DBB242081CBF0133DBB21846CD
:10479000704701207047704738B50546FFF7F9FFAD
:1047A000044610B12846FFF7F6FF204638BD704793
:1047B00010B50446FFF720FE2046FFF7EDFF10BDC1
:1047C00008B50020FFF7F4FF08BD08B505F04AFF63
:1047D000FFF7EEFF08BD000010B505F043FF074BE3
:1047E00004461A78824207D0187006F009F9044B83
:1047F00018602046FFF7DCFF10BD00BF70160020D8
:104800006C16002010B586B06C4684E803009DF855
:1048100005300BB100F0DEFE0023ADF81230ADF82C
:10482000143094E8030011F0FF0F0390ADF810105E
:1048300003AC05D194E8070000F00EFE06B010BDF1
:104840002046FFF7E2FE0028F4D1F7E70379012BB9
:1048500002D1008800F08EBB704708B529B101F085
:10486000FBFCBDE8084001F0CBBD01F053FDF8E7CB
:1048700038B505460C46FEF7DDF81CB92846FEF7AC
:104880003FF938BD6420013C07F081F9A4B2F4E798
:1048900008B539280CBF50210121FFF7E9FF08BDF9
:1048A0002DE9F047867981460C46457900F05CFE9B
:1048B0003609804600B3A846F5B1C4F3072303F0D8
:1048C000F002402A09D004F12002D2B2072A25D9E9
:1048D0001EB903F0E003202B23D0A74B93F80180EF
:1048E00018F0040808D0022000F014FF00F03CFE8D
:1048F00080F001005FFA80F8C4F303330B2B3FD83C
:10490000DFE813F01100110060006000BC00D2006D
:104910003E003E00D7003201430143014FF0000842
:10492000EAE7B046E8E7C4F30723C4F3032613F02D
:10493000F00F18BF3601E7B285B156B107F1200379
:10494000DBB2072B304600D92FB900F01DFE00F076
:1049500089FE384658E000F02DFEF8E73846FEF7AD
:10496000CFF86EB107F12003DBB2072B304600D938
:1049700017B900F011FE01E000F024FE00F072FE15
:10498000C4F30334083C032C03D805F06BFEFFF797
:104990000FFFB8F1000F00F04F8100F0DDFD10F0C7
:1049A000010040F0498189F8050000F0CFFD00F0DA
:1049B00021FA484600F05AF900F0C8FDBDE8F0477A
:1049C00000F024BAC4F3072303F0F003C4F3032771
:1049D000202B5FFA84FA18BF3F01BAF1000F07D00D
:1049E000BAF1010F32D0002D3AD0CEB150460BE0D3
:1049F000614B5B785A0711D44DB127B1384600F0AE
:104A0000C3FD00F02FFE0020FEF714F8B8E728469B
:104A1000FEF776F8002FB3D03846AAE755B11EB995
:104A20003846FEF7BFF8ABE7012EA9D1384600F0B3
:104A3000F1FDA5E7002EA3D13846FEF7E3F838468E
:104A400000F0F6FD384600F0D1FD99E715B1052ECE
:104A500096D8E5E7042E93D83846FEF7D3F88FE7CB
:104A6000002EF9D0BAF1390F0CBF4FF4FA50642080
:104A700007F08DF85046FEF743F881E7C4F3812331
:104A800043B1012B7FF47CAF65B1C4F3090005F09D
:104A900033FE75E725B1C4F3090005F011FE6FE799
:104AA0002846FAE72846F2E72946E0B2FFF7D5FEA6
:104AB00066E714F4407F27D1002D7FF461AFC4F383
:104AC00042108000C3B204F00F009840C2B214F04C
:104AD00010001EBF0F209840C043C4F3812318BFAD
:104AE000C0B2022B40EA020008D00AD8012B02D043
:104AF00000F058F944E700F04DF941E700F05AF9A9
:104B00003EE700F044F93BE7C4F30122D3B205B31A
:104B100002F00103002B3FF433AFC4F342108000D6
:104B2000C3B204F00F009840C2B214F010001EBFD0
:104B30000F209840C043C4F3812318BFC0B2022B9A
:104B400040EA02000AD00CD8012B04D000F07EF914
:104B500016E75B08DEE700F071F911E700F07EF977
:104B60000EE700F035F90BE7E7B2C4F303262DB1E9
:104B7000304600F03FF953E7782F00203846FEF723
:104B800041F8304600F042F9FAE6E7B2A7F1F00347
:104B9000042B3DD8DFE803F003220E151E003DB1C3
:104BA000042E3FF6EDAEC4F3042000F03BF9E7E637
:104BB000052EF6E7C4F30420002DE3D100F01AF926
:104BC000DEE625B1C4F3042000F00DF9D8E600F0CC
:104BD00007F9D5E6194B5B785B0704D4C4F30420CE
:104BE000002DCFD0EAE74DB1C4F30425284600F0EC
:104BF00001F90321284600F06BFDC1E6012000F019
:104C000089FD012E7FF6BCAE022000F083FDB7E6E1
:104C10002DB1002E7FF49DAEC4F30420CEE746B143
:104C2000392F0CBF4FF4FA50642006F0B0FF38461D
:104C300021E7C4F30420A5E7BDE8F087782F002022
:104C400038B50446008960B100F016FF054600F053
:104C50000DF900F09BF829462046BDE83840FFF7E3
:104C60001FBE2188607900F091F9EFE7037910B554
:104C70000446B3B1FFF709FD68B900F075FC80B1D7
:104C8000637973B1074B5B785B070AD5BDE81040C9
:104C9000022000F03FBD2046FFF7D2FF2046FFF77D
:104CA000C5FC10BD782F002008B5002005F008FDD8
:104CB000002005F021FD00F08DFC00F0D3FC01F098
:104CC000BBFBBDE8084001F09BBB08B500F038FC19
:104CD000BDE80840FFF7E8BF08B500F065FCBDE897
:104CE0000840FFF7F2BFC0F303320E3202F00F02AA
:104CF000092A10B5C4B21BD8012101FA02F340F20F
:104D00000332134203D113F010000DD110BDF02C6B
:104D100010D004D8E72C8CBF00200120F6E7F42C3B
:104D200014BF00200120F1E7E72C03D9F12CF7E7AD
:104D30000020EBE70846E9E708B50346007958B1DB
:104D4000188928B100F098FEBDE80840FFF7CBBFF6
:104D5000188800F00FF9F7E708BD82B002AB03E94D
:104D6000030002B0704784B004AB03E9070004B04D
:104D70007047704708B5FFF7FCFF08BD08B5FFF79F
:104D8000F9FF014B187008BD721600207047FFF73D
:104D9000F5BF0000024B1B781843FFF7EFBF00BFC1
:104DA00072160020024B1B781840FFF7E7BF00BFC8
:104DB00072160020024B1B785840FFF7DFBF00BF80
:104DC00072160020704708B5FFF7FCFF08BD000011
:104DD00008B5FFF7F8FF014B187008BD73160020E7
:104DE0000020FFF7F5BF012303FA00F0C0B2FFF780
:104DF000EFBF0000012303FA00F0034B1B781843B8
:104E0000C0B2FFF7E5BF00BF73160020012303FA0D
:104E100000F0034B1B7823EA0000FFF7D9BF00BF67
:104E200073160020012303FA00F0034B1B7858404F
:104E3000C0B2FFF7CDBF00BF73160020024B1B7836
:104E40001843FFF7C5BF00BF73160020024B1B7845
:104E50001840FFF7BDBF00BF73160020024B1B7840
:104E60005840FFF7B5BF00BF73160020704701F030
:104E70000703C90830B501EB4101012401390A4497
:104E800000219C40E4B212F8015F20FA01F343F3E1
:104E900000036B40234001316B4003291370F2D1B2
:104EA00030BD002210B500F00704C00800EB400040
:104EB000014410468B5CE34003F001039340013250
:104EC0001843032AC0B2F5D110BD000017B40C4638
:104ED000C0F307210629ADF804000CD89DF8043072
:104EE000102B08D8204603EB0113044A194403B0E1
:104EF00010BCFFF7BCBF03B010BC70477416002095
:104F000082B0ADF80400C0F3072006280AD89DF847
:104F10000430102B06D800EB00100449184402B0EE
:104F2000FFF7BFBF002002B0704700BF741600201B
:104F300073B503240D4BADF804001E780C4B1B78A1
:104F40001E4346FA04F3DB07E5B206D414F1FF343E
:104F5000F7D20025284602B070BD0199284600F01E
:104F600076FE80B20128F1D0F4E700BF731600206E
:104F70007216002007B5ADF804000198FFF7D8FFBE
:104F8000019903B05DF804EB00F061BE13B5104B5E
:104F9000ADF804101B782BB1019802B0BDE81040A9
:104FA000FFF7E8BF70B10198FFF7C2FF0446014662
:104FB0000198FFF78BFF2046019902B0BDE8104031
:104FC00000F045BE0198FFF79BFF0446F3E700BFE2
:104FD0007116002010B5012404FA02F204FA01F15E
:104FE0001143C9B231EA000204FA03F306BF1843C1
:104FF000C0B2984310BD000008B513460A460146EA
:1050000003480078FFF7E6FFBDE80840FFF7E0BE81
:1050100073160020F8B50A270D4B0E4E1C780E4D66
:105020003378A34200D1F8BD07FB04F2AB18A85AAD
:10503000B3F802C09A88D98840EA0C4042EA01419C
:1050400001341A89FFF78FFE04F00704E8E700BF78
:10505000FD160020FC160020AC160020064B10B4F4
:105060009A885C881888D98840EA044042EA01415D
:1050700010BC1A89FFF777BEA2160020F8B51C4BAA
:105080009A7912F0F00F0CD15A7952B14FF00A0C04
:10509000184A194912780D781E885F88174CAA4261
:1050A00000D1F8BD0CFB02F1601890F804E0BEF1ED
:1050B000000F19D0615AB14216D14179A1B9418886
:1050C000C91B89B2C7290FD80122997962F3071148
:1050D0009971837962F3071383710548FFF7C6FD61
:1050E000BDE8F840FFF796BF013202F00702D6E7AD
:1050F000A2160020FD160020FC160020AC16002091
:10510000F0B50A270D4B0E4A1B7816780D4CB342AA
:1051100002D100221046F0BD07FB03F5621992F898
:1051200001C08C4505D1655D854202D15279002AC6
:10513000F0D1013303F00703E9E700BFFD160020BB
:10514000FC160020AC1600202DE9F04F8BB002AB0E
:105150000446014606221846FBF702FAB34D034601
:10516000297922796779A846C1B9AAB18FB12046B9
:10517000FFF7E2FD064660B10A2221462846FBF70A
:10518000EFF92846FFF762FBFFF778FFFFF766FFAE
:1051900069E02046FFF76AFD012664E0B4F802A04A
:1051A00068886E79AAEB000094F800B094F801903A
:1051B00080B2002E00F0FB80C72800F2A380002AF6
:1051C00051D0AB792A8813F0F00F20885CD190423F
:1051D00012D12989228991420ED1002F4DD101226D
:1051E00062F30713AB71FFF739FF2846FFF73EFD67
:1051F000AB79A371002636E0002F3ED149465846D0
:10520000FFF77EFF5846FFF77BFF05460028F1D1E8
:105210008DF808B08DF809900298FFF7ABFEC0F347
:1052200003310B2912D801228A4012F4406FC3B215
:105230001DD112F00C0F0ED1910707D010F4706F32
:1052400000D07BB12033DBB2072B0BD92046FFF710
:105250000DFD354606E010F4706FF3D0A27912F020
:10526000F00FEFD12E4630460BB0BDE8F08FEF2B9C
:10527000F8D90F33DBB2022BE7E798F8063043F09A
:10528000010388F80630B5E790420ED128892289BB
:1052900090420AD14FB92046A371FFF7E7FC0A22DA
:1052A00021462846FBF75CF970E72046FFF744FDEE
:1052B00000283FF46EAF002F3FF46BAF98F8063034
:1052C0001F2B15D9B8F800208DF81630ADF8102036
:1052D00098F80420B8F808308DF814200022ADF8B2
:1052E00012A08DF81520ADF8183004A8FFF7BEFC09
:1052F0000A2221464D48FBF733F9FFF7BFFEFFF7BF
:10530000ADFE49E7A87910F0F001019118D18DF8B0
:105310000C208DF808B08DF80990ADF80AA08DF832
:105320000D7093E80300FFF718FD2846FFF79EFC79
:105330000A2201992846FBF789F9FFF78FFE59E702
:10534000002A90D02A8823889A420ED12A8923895C
:105350009A420AD14FB9A0712046FFF787FC0A2272
:1053600039462846FBF772F97DE72046FFF7E4FC53
:1053700000283FF40EAF002F3FF40BAF98F8063033
:105380001F2BB5D9B8F800208DF82230ADF81C20BD
:1053900098F80420B8F808308DF820200022ADF8E5
:1053A0001EA08DF82120ADF8243007A89EE7C7285D
:1053B0003ED8002A3FF4F0AE3E46002F3FF4E9AE5F
:1053C0002A8823889A4220D12A8923899A421CD18B
:1053D000AB79DA0713D413F0F00210D0F02AA371DE
:1053E00006D0DBB2C3F30312013262F30713A371D9
:1053F0002046FFF73BFC0A2221460C4852E70A22CE
:1054000021460A48FBF7ACF82DE72046FFF794FC4D
:1054100000287FF46DAF98F80630204643F0010372
:1054200088F80630FFF722FC1DE700BFA216002017
:105430008DF80C208DF808B08DF80990ADF80AA011
:105440008DF80D7093E80300FFF787FC0A223146C0
:105450002846FBF7FBF899E6F0B589B001AC84E883
:1054600007002046FFF770FE294E0746294D70B110
:105470009DF808301BB194E80700FFF774FC0A247C
:10548000254F28783378834226D109B0F0BD05AB8B
:1054900094E8070003C31A809DF80830002BEED073
:1054A00033782A785C1C04F0070494420AD00A225C
:1054B000194805A902FB0300FBF752F83470FFF707
:1054C000A9FDDCE7FFF708FC0A22394613483770CC
:1054D0002F70FBF7BBF8D2E704FB0070FFF734FE38
:1054E0000028D2D02A786243BB18B85AB3F802C059
:1054F0009A88D98840EA0C4042EA01411A89FFF7AC
:1055000032FC2B78013303F007032B70B9E700BF9F
:10551000FC160020FD160020AC160020A21600206C
:10552000024B0146186805F089B900BFC40F00207E
:10553000024B0146186805F099B900BFC40F00205E
:10554000014B186805F0AAB9C40F0020014B187868
:10555000C00870473E170020024B187800F0070083
:10556000704700BF3E170020034B187810F007006B
:1055700018BF0120704700BF3E170020014B18786C
:10558000704700BF41170020024A1378184310707B
:10559000704700BF41170020024A137823EA000039
:1055A00010707047411700200022014B1A7070479D
:1055B00041170020024A137818431070704700BF4B
:1055C00042170020024A137823EA00001070704747
:1055D000421700200022014B1A707047421700202A
:1055E000704708B5FFF7FCFF08BD000008B5054A85
:1055F0001378034204D023EA00001070FFF7F1FF94
:1056000008BD00BF3F170020704708B5FFF7FCFF3B
:1056100008BD000008B5054A137830EA030C03D032
:1056200003431370FFF7F1FF08BD00BF40170020D0
:1056300008B5054A1378034204D023EA000010702D
:10564000FFF7E3FF08BD00BF4017002008B5044B7B
:105650001A781AB100201870FFF7D7FF08BD00BFF5
:105660004017002010B5124B12491B780978124CD4
:105670000B43124920680978037031B10B43037062
:1056800005F056F808B1FFF7E1FF246820220C4925
:105690002046FAF735FF48B1214620220848FAF79C
:1056A0005FFF2046BDE8104004F0E8BF10BD00BF1A
:1056B0004117002042170020C40F0020401700208F
:1056C0001E170020704708B5FFF7FCFF08BD00005B
:1056D000094A10B5527852070AD5084C41EAC00170
:1056E0002170FFF787FB2078C008FFF7ECFF10BDA3
:1056F000BDE81040FFF77EBB782F00203E1700204A
:10570000002008B5024B1870FFF7DDFF08BD00BF91
:105710003E17002008B50A4A137823EA00001070EB
:1057200042070CD198420AD0064B5B785B0706D53E
:10573000C008FFF76BFBBDE80840FFF7E1BF08BDFD
:105740003E170020782F0020094A08B55378C3F38C
:10575000800181420AD060F382035370108800F008
:1057600040F8BDE808400220FFF7D4BF08BD00BFE5
:10577000782F0020044B5878C0F3800080F001009F
:1057800000F00100FFF7E0BF782F00200120FFF7B5
:10579000DBBF0020FFF7D8BF08B500F0CFFFBDE8A2
:1057A00008404FF6FF71002000F0AABF08B50020A6
:1057B00000F03FFF4FF6E663984203D1BDE8084092
:1057C00003F0F7BE002008BD022000F023BF032035
:1057D00000F020BF0146032000F084BF042000F049
:1057E00028BF0146042000F08BBF0F2000F030BF1F
:1057F00001460F2000F092BF132000F029BF0146A0
:10580000132000F08BBF0020FFF7F9BF08B5002080
:10581000FFF7EEFFFFF7F7FF08BD000013B5002408
:1058200000F08CFF4FF6E661002000F069FF0021D8
:10583000022000F057FF0021032000F053FF1C4B13
:105840004FF4A05104201C7000F05AFF214606209E
:1058500000F048FFFF21072000F044FF2146082008
:1058600000F05CFF2146242000F03CFF2146172079
:1058700000F038FF21460C2000F034FF21460D20B7
:1058800000F030FF002300226846CDE900231821F4
:10589000082200F00DFF2146202000F03FFF2046A7
:1058A00003F09CFE03F0BFFEFFF7B0FF02B010BD97
:1058B00072160020FFF7B2BF01460E2000F012BFA3
:1058C00073B505F0D7F80B4C0546238883420ED0FC
:1058D0000026ADF8006005F0CDF8ADF80460ADF835
:1058E000020002AB13E90300FEF78CFF258002B033
:1058F00070BD00BF4C17002008B505F081F8024BC1
:105900001860024B186008BD44170020481700209B
:10591000704770470120704708B5054800F090FABD
:1059200000F00AFFFFF7F4FFFCF7FAFC08BD00BF28
:10593000395E00080120704708B5FFF7FBFF08BD7E
:1059400008B5FDF7EFF9FDF7CDFE08BD08B500F08D
:1059500097FAFEF72CFFBDE8084003F035BB0000C6
:1059600008B505F04BF803F06EFE00F059FBFFF7A9
:10597000EDFF054B1A7842F080021A701888FFF785
:1059800030FFFDF7A3FD08BD782F00202DE9F04F73
:1059900085B0FFF7BFFF60B9FFF792FF04F06EFA22
:1059A00003F086FA00F070FD05B0BDE8F04FFEF799
:1059B00013BF2F4E00F04EFB37460024E0B257F8DD
:1059C000045B00F087FA062C4FD0854204F10104F5
:1059D000F4D0284B1B789B0701D500F081FAFFF724
:1059E000ABFF00254FF0010B00905FFA85F84046B1
:1059F00000F070FA56F8043B074698422FD0002476
:105A00004FF0010943400193019B13EA090F1ED097
:105A1000009B17EA090F14BF4FF0010A4FF0000A6C
:105A200083B18DF808408DF8098005F023F88DF8D2
:105A30000CB0ADF80A008DF80DA002AB93E803009E
:105A4000FEF7E0FE52462146404602F0EBFE0134EE
:105A5000E4B2112C4FEA4909D6D146F8047C01354D
:105A6000072DC2D1FFF748FF98E78542B1D193E7F0
:105A7000501700206C17002038B500F0F3F8B0F58F
:105A8000A04F044622D2B0F5804F77D2DF2812D83B
:105A9000CD2861D2A7280AD8A5284ED2012804D043
:105AA00003B233B1032898BF0024204638BDC22872
:105AB0004AD90024F9E7B0F5005F80F0A280B0F584
:105AC000807F4DD2E82828BF0024EEE745F25F230F
:105AD000984216D845F2402398425FD245F21F23E0
